{
  "_format": "hh-sol-artifact-1",
  "contractName": "UserContract",
  "sourceName": "contracts/telebot.sol",
  "abi": [
    {
      "inputs": [
        {
          "internalType": "string",
          "name": "_name",
          "type": "string"
        },
        {
          "internalType": "uint8",
          "name": "_age",
          "type": "uint8"
        },
        {
          "internalType": "string",
          "name": "_gender",
          "type": "string"
        },
        {
          "internalType": "string",
          "name": "_userAddress",
          "type": "string"
        }
      ],
      "name": "addUser",
      "outputs": [],
      "stateMutability": "nonpayable",
      "type": "function"
    },
    {
      "inputs": [
        {
          "internalType": "address",
          "name": "_user",
          "type": "address"
        }
      ],
      "name": "getUser",
      "outputs": [
        {
          "internalType": "string",
          "name": "",
          "type": "string"
        },
        {
          "internalType": "uint8",
          "name": "",
          "type": "uint8"
        },
        {
          "internalType": "string",
          "name": "",
          "type": "string"
        },
        {
          "internalType": "string",
          "name": "",
          "type": "string"
        }
      ],
      "stateMutability": "view",
      "type": "function"
    }
  ],
  "bytecode": "0x6080604052348015600f57600080fd5b50610a828061001f6000396000f3fe608060405234801561001057600080fd5b50600436106100365760003560e01c80636f77926b1461003b57806396ace9c01461006e575b600080fd5b61005560048036038101906100509190610415565b61008a565b60405161006594939291906104ee565b60405180910390f35b610088600480360381019061008391906106a9565b6102d5565b005b6060600060608060008060008773ffffffffffffffffffffffffffffffffffffffff1673ffffffffffffffffffffffffffffffffffffffff1681526020019081526020016000206040518060800160405290816000820180546100ec90610793565b80601f016020809104026020016040519081016040528092919081815260200182805461011890610793565b80156101655780601f1061013a57610100808354040283529160200191610165565b820191906000526020600020905b81548152906001019060200180831161014857829003601f168201915b505050505081526020016001820160009054906101000a900460ff1660ff1660ff16815260200160028201805461019b90610793565b80601f01602080910402602001604051908101604052809291908181526020018280546101c790610793565b80156102145780601f106101e957610100808354040283529160200191610214565b820191906000526020600020905b8154815290600101906020018083116101f757829003601f168201915b5050505050815260200160038201805461022d90610793565b80601f016020809104026020016040519081016040528092919081815260200182805461025990610793565b80156102a65780601f1061027b576101008083540402835291602001916102a6565b820191906000526020600020905b81548152906001019060200180831161028957829003601f168201915b505050505081525050905080600001518160200151826040015183606001519450945094509450509193509193565b60405180608001604052808581526020018460ff168152602001838152602001828152506000803373ffffffffffffffffffffffffffffffffffffffff1673ffffffffffffffffffffffffffffffffffffffff168152602001908152602001600020600082015181600001908161034c919061097a565b5060208201518160010160006101000a81548160ff021916908360ff1602179055506040820151816002019081610383919061097a565b506060820151816003019081610399919061097a565b5090505050505050565b6000604051905090565b600080fd5b600080fd5b600073ffffffffffffffffffffffffffffffffffffffff82169050919050565b60006103e2826103b7565b9050919050565b6103f2816103d7565b81146103fd57600080fd5b50565b60008135905061040f816103e9565b92915050565b60006020828403121561042b5761042a6103ad565b5b600061043984828501610400565b91505092915050565b600081519050919050565b600082825260208201905092915050565b60005b8381101561047c578082015181840152602081019050610461565b60008484015250505050565b6000601f19601f8301169050919050565b60006104a482610442565b6104ae818561044d565b93506104be81856020860161045e565b6104c781610488565b840191505092915050565b600060ff82169050919050565b6104e8816104d2565b82525050565b600060808201905081810360008301526105088187610499565b905061051760208301866104df565b81810360408301526105298185610499565b9050818103606083015261053d8184610499565b905095945050505050565b600080fd5b600080fd5b7f4e487b7100000000000000000000000000000000000000000000000000000000600052604160045260246000fd5b61058a82610488565b810181811067ffffffffffffffff821117156105a9576105a8610552565b5b80604052505050565b60006105bc6103a3565b90506105c88282610581565b919050565b600067ffffffffffffffff8211156105e8576105e7610552565b5b6105f182610488565b9050602081019050919050565b82818337600083830152505050565b600061062061061b846105cd565b6105b2565b90508281526020810184848401111561063c5761063b61054d565b5b6106478482856105fe565b509392505050565b600082601f83011261066457610663610548565b5b813561067484826020860161060d565b91505092915050565b610686816104d2565b811461069157600080fd5b50565b6000813590506106a38161067d565b92915050565b600080600080608085870312156106c3576106c26103ad565b5b600085013567ffffffffffffffff8111156106e1576106e06103b2565b5b6106ed8782880161064f565b94505060206106fe87828801610694565b935050604085013567ffffffffffffffff81111561071f5761071e6103b2565b5b61072b8782880161064f565b925050606085013567ffffffffffffffff81111561074c5761074b6103b2565b5b6107588782880161064f565b91505092959194509250565b7f4e487b7100000000000000000000000000000000000000000000000000000000600052602260045260246000fd5b600060028204905060018216806107ab57607f821691505b6020821081036107be576107bd610764565b5b50919050565b60008190508160005260206000209050919050565b60006020601f8301049050919050565b600082821b905092915050565b6000600883026108267fffffffffffffffffffffffffffffffffffffffffffffffffffffffffffffffff826107e9565b61083086836107e9565b95508019841693508086168417925050509392505050565b6000819050919050565b6000819050919050565b600061087761087261086d84610848565b610852565b610848565b9050919050565b6000819050919050565b6108918361085c565b6108a561089d8261087e565b8484546107f6565b825550505050565b600090565b6108ba6108ad565b6108c5818484610888565b505050565b5b818110156108e9576108de6000826108b2565b6001810190506108cb565b5050565b601f82111561092e576108ff816107c4565b610908846107d9565b81016020851015610917578190505b61092b610923856107d9565b8301826108ca565b50505b505050565b600082821c905092915050565b600061095160001984600802610933565b1980831691505092915050565b600061096a8383610940565b9150826002028217905092915050565b61098382610442565b67ffffffffffffffff81111561099c5761099b610552565b5b6109a68254610793565b6109b18282856108ed565b600060209050601f8311600181146109e457600084156109d2578287015190505b6109dc858261095e565b865550610a44565b601f1984166109f2866107c4565b60005b82811015610a1a578489015182556001820191506020850194506020810190506109f5565b86831015610a375784890151610a33601f891682610940565b8355505b6001600288020188555050505b50505050505056fea26469706673582212202e2025020b0414828656be557e71b211c17c419175d16b5908e7534ebc3f345564736f6c634300081a0033",
  "linkReferences": {},
  "deployedLinkReferences": {}
}